{
  "contractName": "NFT",
  "abi": [
    {
      "inputs": [
        {
          "internalType": "address",
          "name": "marketplaceAddress",
          "type": "address"
        }
      ],
      "stateMutability": "nonpayable",
      "type": "constructor"
    },
    {
      "anonymous": false,
      "inputs": [
        {
          "indexed": true,
          "internalType": "address",
          "name": "owner",
          "type": "address"
        },
        {
          "indexed": true,
          "internalType": "address",
          "name": "approved",
          "type": "address"
        },
        {
          "indexed": true,
          "internalType": "uint256",
          "name": "tokenId",
          "type": "uint256"
        }
      ],
      "name": "Approval",
      "type": "event"
    },
    {
      "anonymous": false,
      "inputs": [
        {
          "indexed": true,
          "internalType": "address",
          "name": "owner",
          "type": "address"
        },
        {
          "indexed": true,
          "internalType": "address",
          "name": "operator",
          "type": "address"
        },
        {
          "indexed": false,
          "internalType": "bool",
          "name": "approved",
          "type": "bool"
        }
      ],
      "name": "ApprovalForAll",
      "type": "event"
    },
    {
      "anonymous": false,
      "inputs": [
        {
          "indexed": true,
          "internalType": "address",
          "name": "from",
          "type": "address"
        },
        {
          "indexed": true,
          "internalType": "address",
          "name": "to",
          "type": "address"
        },
        {
          "indexed": true,
          "internalType": "uint256",
          "name": "tokenId",
          "type": "uint256"
        }
      ],
      "name": "Transfer",
      "type": "event"
    },
    {
      "inputs": [
        {
          "internalType": "address",
          "name": "to",
          "type": "address"
        },
        {
          "internalType": "uint256",
          "name": "tokenId",
          "type": "uint256"
        }
      ],
      "name": "approve",
      "outputs": [],
      "stateMutability": "nonpayable",
      "type": "function"
    },
    {
      "inputs": [
        {
          "internalType": "address",
          "name": "owner",
          "type": "address"
        }
      ],
      "name": "balanceOf",
      "outputs": [
        {
          "internalType": "uint256",
          "name": "",
          "type": "uint256"
        }
      ],
      "stateMutability": "view",
      "type": "function",
      "constant": true
    },
    {
      "inputs": [
        {
          "internalType": "uint256",
          "name": "tokenId",
          "type": "uint256"
        }
      ],
      "name": "getApproved",
      "outputs": [
        {
          "internalType": "address",
          "name": "",
          "type": "address"
        }
      ],
      "stateMutability": "view",
      "type": "function",
      "constant": true
    },
    {
      "inputs": [
        {
          "internalType": "address",
          "name": "owner",
          "type": "address"
        },
        {
          "internalType": "address",
          "name": "operator",
          "type": "address"
        }
      ],
      "name": "isApprovedForAll",
      "outputs": [
        {
          "internalType": "bool",
          "name": "",
          "type": "bool"
        }
      ],
      "stateMutability": "view",
      "type": "function",
      "constant": true
    },
    {
      "inputs": [],
      "name": "name",
      "outputs": [
        {
          "internalType": "string",
          "name": "",
          "type": "string"
        }
      ],
      "stateMutability": "view",
      "type": "function",
      "constant": true
    },
    {
      "inputs": [
        {
          "internalType": "uint256",
          "name": "tokenId",
          "type": "uint256"
        }
      ],
      "name": "ownerOf",
      "outputs": [
        {
          "internalType": "address",
          "name": "",
          "type": "address"
        }
      ],
      "stateMutability": "view",
      "type": "function",
      "constant": true
    },
    {
      "inputs": [
        {
          "internalType": "address",
          "name": "from",
          "type": "address"
        },
        {
          "internalType": "address",
          "name": "to",
          "type": "address"
        },
        {
          "internalType": "uint256",
          "name": "tokenId",
          "type": "uint256"
        }
      ],
      "name": "safeTransferFrom",
      "outputs": [],
      "stateMutability": "nonpayable",
      "type": "function"
    },
    {
      "inputs": [
        {
          "internalType": "address",
          "name": "from",
          "type": "address"
        },
        {
          "internalType": "address",
          "name": "to",
          "type": "address"
        },
        {
          "internalType": "uint256",
          "name": "tokenId",
          "type": "uint256"
        },
        {
          "internalType": "bytes",
          "name": "_data",
          "type": "bytes"
        }
      ],
      "name": "safeTransferFrom",
      "outputs": [],
      "stateMutability": "nonpayable",
      "type": "function"
    },
    {
      "inputs": [
        {
          "internalType": "address",
          "name": "operator",
          "type": "address"
        },
        {
          "internalType": "bool",
          "name": "approved",
          "type": "bool"
        }
      ],
      "name": "setApprovalForAll",
      "outputs": [],
      "stateMutability": "nonpayable",
      "type": "function"
    },
    {
      "inputs": [
        {
          "internalType": "bytes4",
          "name": "interfaceId",
          "type": "bytes4"
        }
      ],
      "name": "supportsInterface",
      "outputs": [
        {
          "internalType": "bool",
          "name": "",
          "type": "bool"
        }
      ],
      "stateMutability": "view",
      "type": "function",
      "constant": true
    },
    {
      "inputs": [],
      "name": "symbol",
      "outputs": [
        {
          "internalType": "string",
          "name": "",
          "type": "string"
        }
      ],
      "stateMutability": "view",
      "type": "function",
      "constant": true
    },
    {
      "inputs": [
        {
          "internalType": "uint256",
          "name": "tokenId",
          "type": "uint256"
        }
      ],
      "name": "tokenURI",
      "outputs": [
        {
          "internalType": "string",
          "name": "",
          "type": "string"
        }
      ],
      "stateMutability": "view",
      "type": "function",
      "constant": true
    },
    {
      "inputs": [
        {
          "internalType": "address",
          "name": "from",
          "type": "address"
        },
        {
          "internalType": "address",
          "name": "to",
          "type": "address"
        },
        {
          "internalType": "uint256",
          "name": "tokenId",
          "type": "uint256"
        }
      ],
      "name": "transferFrom",
      "outputs": [],
      "stateMutability": "nonpayable",
      "type": "function"
    },
    {
      "inputs": [
        {
          "internalType": "string",
          "name": "nftTokenURl",
          "type": "string"
        }
      ],
      "name": "createNFtToken",
      "outputs": [
        {
          "internalType": "uint256",
          "name": "",
          "type": "uint256"
        }
      ],
      "stateMutability": "nonpayable",
      "type": "function"
    },
    {
      "inputs": [
        {
          "internalType": "address",
          "name": "from",
          "type": "address"
        },
        {
          "internalType": "address",
          "name": "to",
          "type": "address"
        },
        {
          "internalType": "uint256",
          "name": "tokenId",
          "type": "uint256"
        }
      ],
      "name": "transferToken",
      "outputs": [],
      "stateMutability": "nonpayable",
      "type": "function"
    },
    {
      "inputs": [],
      "name": "getContractAddress",
      "outputs": [
        {
          "internalType": "address",
          "name": "",
          "type": "address"
        }
      ],
      "stateMutability": "view",
      "type": "function",
      "constant": true
    }
  ],
  "bytecode": "0x60806040523480156200001157600080fd5b5060405162002ffb38038062002ffb833981810160405281019062000037919062000239565b6040518060400160405280600981526020017f6172616269634e467400000000000000000000000000000000000000000000008152506040518060400160405280600581526020017f61724e46540000000000000000000000000000000000000000000000000000008152508160009080519060200190620000bb9291906200011f565b508060019080519060200190620000d49291906200011f565b50505080600860006101000a81548173ffffffffffffffffffffffffffffffffffffffff021916908373ffffffffffffffffffffffffffffffffffffffff16021790555050620002d0565b8280546200012d906200029a565b90600052602060002090601f0160209004810192826200015157600085556200019d565b82601f106200016c57805160ff19168380011785556200019d565b828001600101855582156200019d579182015b828111156200019c5782518255916020019190600101906200017f565b5b509050620001ac9190620001b0565b5090565b5b80821115620001cb576000816000905550600101620001b1565b5090565b600080fd5b600073ffffffffffffffffffffffffffffffffffffffff82169050919050565b60006200020182620001d4565b9050919050565b6200021381620001f4565b81146200021f57600080fd5b50565b600081519050620002338162000208565b92915050565b600060208284031215620002525762000251620001cf565b5b6000620002628482850162000222565b91505092915050565b7f4e487b7100000000000000000000000000000000000000000000000000000000600052602260045260246000fd5b60006002820490506001821680620002b357607f821691505b60208210811415620002ca57620002c96200026b565b5b50919050565b612d1b80620002e06000396000f3fe608060405234801561001057600080fd5b50600436106101005760003560e01c806370a0823111610097578063c87b56dd11610066578063c87b56dd146102ab578063cb18ee7b146102db578063e985e9c51461030b578063f5537ede1461033b57610100565b806370a082311461022557806395d89b4114610255578063a22cb46514610273578063b88d4fde1461028f57610100565b806323b872dd116100d357806323b872dd1461019f57806332a2c5d0146101bb57806342842e0e146101d95780636352211e146101f557610100565b806301ffc9a71461010557806306fdde0314610135578063081812fc14610153578063095ea7b314610183575b600080fd5b61011f600480360381019061011a9190611a24565b610357565b60405161012c9190611a6c565b60405180910390f35b61013d610439565b60405161014a9190611b20565b60405180910390f35b61016d60048036038101906101689190611b78565b6104cb565b60405161017a9190611be6565b60405180910390f35b61019d60048036038101906101989190611c2d565b610550565b005b6101b960048036038101906101b49190611c6d565b610668565b005b6101c36106c8565b6040516101d09190611be6565b60405180910390f35b6101f360048036038101906101ee9190611c6d565b6106f2565b005b61020f600480360381019061020a9190611b78565b610712565b60405161021c9190611be6565b60405180910390f35b61023f600480360381019061023a9190611cc0565b6107c4565b60405161024c9190611cfc565b60405180910390f35b61025d61087c565b60405161026a9190611b20565b60405180910390f35b61028d60048036038101906102889190611d43565b61090e565b005b6102a960048036038101906102a49190611eb8565b610924565b005b6102c560048036038101906102c09190611b78565b610986565b6040516102d29190611b20565b60405180910390f35b6102f560048036038101906102f09190611fdc565b610ad8565b6040516103029190611cfc565b60405180910390f35b61032560048036038101906103209190612025565b610b3c565b6040516103329190611a6c565b60405180910390f35b61035560048036038101906103509190611c6d565b610bd0565b005b60007f80ac58cd000000000000000000000000000000000000000000000000000000007bffffffffffffffffffffffffffffffffffffffffffffffffffffffff1916827bffffffffffffffffffffffffffffffffffffffffffffffffffffffff1916148061042257507f5b5e139f000000000000000000000000000000000000000000000000000000007bffffffffffffffffffffffffffffffffffffffffffffffffffffffff1916827bffffffffffffffffffffffffffffffffffffffffffffffffffffffff1916145b80610432575061043182610c56565b5b9050919050565b60606000805461044890612094565b80601f016020809104026020016040519081016040528092919081815260200182805461047490612094565b80156104c15780601f10610496576101008083540402835291602001916104c1565b820191906000526020600020905b8154815290600101906020018083116104a457829003601f168201915b5050505050905090565b60006104d682610cc0565b610515576040517f08c379a000000000000000000000000000000000000000000000000000000000815260040161050c90612138565b60405180910390fd5b6004600083815260200190815260200160002060009054906101000a900473ffffffffffffffffffffffffffffffffffffffff169050919050565b600061055b82610712565b90508073ffffffffffffffffffffffffffffffffffffffff168373ffffffffffffffffffffffffffffffffffffffff1614156105cc576040517f08c379a00000000000000000000000000000000000000000000000000000000081526004016105c3906121ca565b60405180910390fd5b8073ffffffffffffffffffffffffffffffffffffffff166105eb610d2c565b73ffffffffffffffffffffffffffffffffffffffff16148061061a575061061981610614610d2c565b610b3c565b5b610659576040517f08c379a00000000000000000000000000000000000000000000000000000000081526004016106509061225c565b60405180910390fd5b6106638383610d34565b505050565b610679610673610d2c565b82610ded565b6106b8576040517f08c379a00000000000000000000000000000000000000000000000000000000081526004016106af906122ee565b60405180910390fd5b6106c3838383610ecb565b505050565b6000600860009054906101000a900473ffffffffffffffffffffffffffffffffffffffff16905090565b61070d83838360405180602001604052806000815250610924565b505050565b6000806002600084815260200190815260200160002060009054906101000a900473ffffffffffffffffffffffffffffffffffffffff169050600073ffffffffffffffffffffffffffffffffffffffff168173ffffffffffffffffffffffffffffffffffffffff1614156107bb576040517f08c379a00000000000000000000000000000000000000000000000000000000081526004016107b290612380565b60405180910390fd5b80915050919050565b60008073ffffffffffffffffffffffffffffffffffffffff168273ffffffffffffffffffffffffffffffffffffffff161415610835576040517f08c379a000000000000000000000000000000000000000000000000000000000815260040161082c90612412565b60405180910390fd5b600360008373ffffffffffffffffffffffffffffffffffffffff1673ffffffffffffffffffffffffffffffffffffffff168152602001908152602001600020549050919050565b60606001805461088b90612094565b80601f01602080910402602001604051908101604052809291908181526020018280546108b790612094565b80156109045780601f106108d957610100808354040283529160200191610904565b820191906000526020600020905b8154815290600101906020018083116108e757829003601f168201915b5050505050905090565b610920610919610d2c565b8383611127565b5050565b61093561092f610d2c565b83610ded565b610974576040517f08c379a000000000000000000000000000000000000000000000000000000000815260040161096b906122ee565b60405180910390fd5b61098084848484611294565b50505050565b606061099182610cc0565b6109d0576040517f08c379a00000000000000000000000000000000000000000000000000000000081526004016109c7906124a4565b60405180910390fd5b60006006600084815260200190815260200160002080546109f090612094565b80601f0160208091040260200160405190810160405280929190818152602001828054610a1c90612094565b8015610a695780601f10610a3e57610100808354040283529160200191610a69565b820191906000526020600020905b815481529060010190602001808311610a4c57829003601f168201915b505050505090506000610a7a6112f0565b9050600081511415610a90578192505050610ad3565b600082511115610ac5578082604051602001610aad929190612500565b60405160208183030381529060405292505050610ad3565b610ace84611307565b925050505b919050565b6000610ae460076113ae565b6000610af060076113c4565b9050610afc33826113d2565b610b0681846115a0565b610b33600860009054906101000a900473ffffffffffffffffffffffffffffffffffffffff16600161090e565b80915050919050565b6000600560008473ffffffffffffffffffffffffffffffffffffffff1673ffffffffffffffffffffffffffffffffffffffff16815260200190815260200160002060008373ffffffffffffffffffffffffffffffffffffffff1673ffffffffffffffffffffffffffffffffffffffff16815260200190815260200160002060009054906101000a900460ff16905092915050565b8273ffffffffffffffffffffffffffffffffffffffff16610bf082610712565b73ffffffffffffffffffffffffffffffffffffffff1614610c46576040517f08c379a0000000000000000000000000000000000000000000000000000000008152600401610c3d90612570565b60405180910390fd5b610c51838383610ecb565b505050565b60007f01ffc9a7000000000000000000000000000000000000000000000000000000007bffffffffffffffffffffffffffffffffffffffffffffffffffffffff1916827bffffffffffffffffffffffffffffffffffffffffffffffffffffffff1916149050919050565b60008073ffffffffffffffffffffffffffffffffffffffff166002600084815260200190815260200160002060009054906101000a900473ffffffffffffffffffffffffffffffffffffffff1673ffffffffffffffffffffffffffffffffffffffff1614159050919050565b600033905090565b816004600083815260200190815260200160002060006101000a81548173ffffffffffffffffffffffffffffffffffffffff021916908373ffffffffffffffffffffffffffffffffffffffff160217905550808273ffffffffffffffffffffffffffffffffffffffff16610da783610712565b73ffffffffffffffffffffffffffffffffffffffff167f8c5be1e5ebec7d5bd14f71427d1e84f3dd0314c0f7b2291e5b200ac8c7c3b92560405160405180910390a45050565b6000610df882610cc0565b610e37576040517f08c379a0000000000000000000000000000000000000000000000000000000008152600401610e2e90612602565b60405180910390fd5b6000610e4283610712565b90508073ffffffffffffffffffffffffffffffffffffffff168473ffffffffffffffffffffffffffffffffffffffff161480610eb157508373ffffffffffffffffffffffffffffffffffffffff16610e99846104cb565b73ffffffffffffffffffffffffffffffffffffffff16145b80610ec25750610ec18185610b3c565b5b91505092915050565b8273ffffffffffffffffffffffffffffffffffffffff16610eeb82610712565b73ffffffffffffffffffffffffffffffffffffffff1614610f41576040517f08c379a0000000000000000000000000000000000000000000000000000000008152600401610f3890612694565b60405180910390fd5b600073ffffffffffffffffffffffffffffffffffffffff168273ffffffffffffffffffffffffffffffffffffffff161415610fb1576040517f08c379a0000000000000000000000000000000000000000000000000000000008152600401610fa890612726565b60405180910390fd5b610fbc838383611614565b610fc7600082610d34565b6001600360008573ffffffffffffffffffffffffffffffffffffffff1673ffffffffffffffffffffffffffffffffffffffff16815260200190815260200160002060008282546110179190612775565b925050819055506001600360008473ffffffffffffffffffffffffffffffffffffffff1673ffffffffffffffffffffffffffffffffffffffff168152602001908152602001600020600082825461106e91906127a9565b92505081905550816002600083815260200190815260200160002060006101000a81548173ffffffffffffffffffffffffffffffffffffffff021916908373ffffffffffffffffffffffffffffffffffffffff160217905550808273ffffffffffffffffffffffffffffffffffffffff168473ffffffffffffffffffffffffffffffffffffffff167fddf252ad1be2c89b69c2b068fc378daa952ba7f163c4a11628f55a4df523b3ef60405160405180910390a4505050565b8173ffffffffffffffffffffffffffffffffffffffff168373ffffffffffffffffffffffffffffffffffffffff161415611196576040517f08c379a000000000000000000000000000000000000000000000000000000000815260040161118d9061284b565b60405180910390fd5b80600560008573ffffffffffffffffffffffffffffffffffffffff1673ffffffffffffffffffffffffffffffffffffffff16815260200190815260200160002060008473ffffffffffffffffffffffffffffffffffffffff1673ffffffffffffffffffffffffffffffffffffffff16815260200190815260200160002060006101000a81548160ff0219169083151502179055508173ffffffffffffffffffffffffffffffffffffffff168373ffffffffffffffffffffffffffffffffffffffff167f17307eab39ab6107e8899845ad3d59bd9653f200f220920489ca2b5937696c31836040516112879190611a6c565b60405180910390a3505050565b61129f848484610ecb565b6112ab84848484611619565b6112ea576040517f08c379a00000000000000000000000000000000000000000000000000000000081526004016112e1906128dd565b60405180910390fd5b50505050565b606060405180602001604052806000815250905090565b606061131282610cc0565b611351576040517f08c379a00000000000000000000000000000000000000000000000000000000081526004016113489061296f565b60405180910390fd5b600061135b6112f0565b9050600081511161137b57604051806020016040528060008152506113a6565b80611385846117a1565b604051602001611396929190612500565b6040516020818303038152906040525b915050919050565b6001816000016000828254019250508190555050565b600081600001549050919050565b600073ffffffffffffffffffffffffffffffffffffffff168273ffffffffffffffffffffffffffffffffffffffff161415611442576040517f08c379a0000000000000000000000000000000000000000000000000000000008152600401611439906129db565b60405180910390fd5b61144b81610cc0565b1561148b576040517f08c379a000000000000000000000000000000000000000000000000000000000815260040161148290612a47565b60405180910390fd5b61149760008383611614565b6001600360008473ffffffffffffffffffffffffffffffffffffffff1673ffffffffffffffffffffffffffffffffffffffff16815260200190815260200160002060008282546114e791906127a9565b92505081905550816002600083815260200190815260200160002060006101000a81548173ffffffffffffffffffffffffffffffffffffffff021916908373ffffffffffffffffffffffffffffffffffffffff160217905550808273ffffffffffffffffffffffffffffffffffffffff16600073ffffffffffffffffffffffffffffffffffffffff167fddf252ad1be2c89b69c2b068fc378daa952ba7f163c4a11628f55a4df523b3ef60405160405180910390a45050565b6115a982610cc0565b6115e8576040517f08c379a00000000000000000000000000000000000000000000000000000000081526004016115df90612ad9565b60405180910390fd5b8060066000848152602001908152602001600020908051906020019061160f929190611915565b505050565b505050565b600061163a8473ffffffffffffffffffffffffffffffffffffffff16611902565b15611794578373ffffffffffffffffffffffffffffffffffffffff1663150b7a02611663610d2c565b8786866040518563ffffffff1660e01b81526004016116859493929190612b4e565b6020604051808303816000875af19250505080156116c157506040513d601f19601f820116820180604052508101906116be9190612baf565b60015b611744573d80600081146116f1576040519150601f19603f3d011682016040523d82523d6000602084013e6116f6565b606091505b5060008151141561173c576040517f08c379a0000000000000000000000000000000000000000000000000000000008152600401611733906128dd565b60405180910390fd5b805181602001fd5b63150b7a0260e01b7bffffffffffffffffffffffffffffffffffffffffffffffffffffffff1916817bffffffffffffffffffffffffffffffffffffffffffffffffffffffff191614915050611799565b600190505b949350505050565b606060008214156117e9576040518060400160405280600181526020017f300000000000000000000000000000000000000000000000000000000000000081525090506118fd565b600082905060005b6000821461181b57808061180490612bdc565b915050600a826118149190612c54565b91506117f1565b60008167ffffffffffffffff81111561183757611836611d8d565b5b6040519080825280601f01601f1916602001820160405280156118695781602001600182028036833780820191505090505b5090505b600085146118f6576001826118829190612775565b9150600a856118919190612c85565b603061189d91906127a9565b60f81b8183815181106118b3576118b2612cb6565b5b60200101907effffffffffffffffffffffffffffffffffffffffffffffffffffffffffffff1916908160001a905350600a856118ef9190612c54565b945061186d565b8093505050505b919050565b600080823b905060008111915050919050565b82805461192190612094565b90600052602060002090601f016020900481019282611943576000855561198a565b82601f1061195c57805160ff191683800117855561198a565b8280016001018555821561198a579182015b8281111561198957825182559160200191906001019061196e565b5b509050611997919061199b565b5090565b5b808211156119b457600081600090555060010161199c565b5090565b6000604051905090565b600080fd5b600080fd5b60007fffffffff0000000000000000000000000000000000000000000000000000000082169050919050565b611a01816119cc565b8114611a0c57600080fd5b50565b600081359050611a1e816119f8565b92915050565b600060208284031215611a3a57611a396119c2565b5b6000611a4884828501611a0f565b91505092915050565b60008115159050919050565b611a6681611a51565b82525050565b6000602082019050611a816000830184611a5d565b92915050565b600081519050919050565b600082825260208201905092915050565b60005b83811015611ac1578082015181840152602081019050611aa6565b83811115611ad0576000848401525b50505050565b6000601f19601f8301169050919050565b6000611af282611a87565b611afc8185611a92565b9350611b0c818560208601611aa3565b611b1581611ad6565b840191505092915050565b60006020820190508181036000830152611b3a8184611ae7565b905092915050565b6000819050919050565b611b5581611b42565b8114611b6057600080fd5b50565b600081359050611b7281611b4c565b92915050565b600060208284031215611b8e57611b8d6119c2565b5b6000611b9c84828501611b63565b91505092915050565b600073ffffffffffffffffffffffffffffffffffffffff82169050919050565b6000611bd082611ba5565b9050919050565b611be081611bc5565b82525050565b6000602082019050611bfb6000830184611bd7565b92915050565b611c0a81611bc5565b8114611c1557600080fd5b50565b600081359050611c2781611c01565b92915050565b60008060408385031215611c4457611c436119c2565b5b6000611c5285828601611c18565b9250506020611c6385828601611b63565b9150509250929050565b600080600060608486031215611c8657611c856119c2565b5b6000611c9486828701611c18565b9350506020611ca586828701611c18565b9250506040611cb686828701611b63565b9150509250925092565b600060208284031215611cd657611cd56119c2565b5b6000611ce484828501611c18565b91505092915050565b611cf681611b42565b82525050565b6000602082019050611d116000830184611ced565b92915050565b611d2081611a51565b8114611d2b57600080fd5b50565b600081359050611d3d81611d17565b92915050565b60008060408385031215611d5a57611d596119c2565b5b6000611d6885828601611c18565b9250506020611d7985828601611d2e565b9150509250929050565b600080fd5b600080fd5b7f4e487b7100000000000000000000000000000000000000000000000000000000600052604160045260246000fd5b611dc582611ad6565b810181811067ffffffffffffffff82111715611de457611de3611d8d565b5b80604052505050565b6000611df76119b8565b9050611e038282611dbc565b919050565b600067ffffffffffffffff821115611e2357611e22611d8d565b5b611e2c82611ad6565b9050602081019050919050565b82818337600083830152505050565b6000611e5b611e5684611e08565b611ded565b905082815260208101848484011115611e7757611e76611d88565b5b611e82848285611e39565b509392505050565b600082601f830112611e9f57611e9e611d83565b5b8135611eaf848260208601611e48565b91505092915050565b60008060008060808587031215611ed257611ed16119c2565b5b6000611ee087828801611c18565b9450506020611ef187828801611c18565b9350506040611f0287828801611b63565b925050606085013567ffffffffffffffff811115611f2357611f226119c7565b5b611f2f87828801611e8a565b91505092959194509250565b600067ffffffffffffffff821115611f5657611f55611d8d565b5b611f5f82611ad6565b9050602081019050919050565b6000611f7f611f7a84611f3b565b611ded565b905082815260208101848484011115611f9b57611f9a611d88565b5b611fa6848285611e39565b509392505050565b600082601f830112611fc357611fc2611d83565b5b8135611fd3848260208601611f6c565b91505092915050565b600060208284031215611ff257611ff16119c2565b5b600082013567ffffffffffffffff8111156120105761200f6119c7565b5b61201c84828501611fae565b91505092915050565b6000806040838503121561203c5761203b6119c2565b5b600061204a85828601611c18565b925050602061205b85828601611c18565b9150509250929050565b7f4e487b7100000000000000000000000000000000000000000000000000000000600052602260045260246000fd5b600060028204905060018216806120ac57607f821691505b602082108114156120c0576120bf612065565b5b50919050565b7f4552433732313a20617070726f76656420717565727920666f72206e6f6e657860008201527f697374656e7420746f6b656e0000000000000000000000000000000000000000602082015250565b6000612122602c83611a92565b915061212d826120c6565b604082019050919050565b6000602082019050818103600083015261215181612115565b9050919050565b7f4552433732313a20617070726f76616c20746f2063757272656e74206f776e6560008201527f7200000000000000000000000000000000000000000000000000000000000000602082015250565b60006121b4602183611a92565b91506121bf82612158565b604082019050919050565b600060208201905081810360008301526121e3816121a7565b9050919050565b7f4552433732313a20617070726f76652063616c6c6572206973206e6f74206f7760008201527f6e6572206e6f7220617070726f76656420666f7220616c6c0000000000000000602082015250565b6000612246603883611a92565b9150612251826121ea565b604082019050919050565b6000602082019050818103600083015261227581612239565b9050919050565b7f4552433732313a207472616e736665722063616c6c6572206973206e6f74206f60008201527f776e6572206e6f7220617070726f766564000000000000000000000000000000602082015250565b60006122d8603183611a92565b91506122e38261227c565b604082019050919050565b60006020820190508181036000830152612307816122cb565b9050919050565b7f4552433732313a206f776e657220717565727920666f72206e6f6e657869737460008201527f656e7420746f6b656e0000000000000000000000000000000000000000000000602082015250565b600061236a602983611a92565b91506123758261230e565b604082019050919050565b600060208201905081810360008301526123998161235d565b9050919050565b7f4552433732313a2062616c616e636520717565727920666f7220746865207a6560008201527f726f206164647265737300000000000000000000000000000000000000000000602082015250565b60006123fc602a83611a92565b9150612407826123a0565b604082019050919050565b6000602082019050818103600083015261242b816123ef565b9050919050565b7f45524337323155524953746f726167653a2055524920717565727920666f722060008201527f6e6f6e6578697374656e7420746f6b656e000000000000000000000000000000602082015250565b600061248e603183611a92565b915061249982612432565b604082019050919050565b600060208201905081810360008301526124bd81612481565b9050919050565b600081905092915050565b60006124da82611a87565b6124e481856124c4565b93506124f4818560208601611aa3565b80840191505092915050565b600061250c82856124cf565b915061251882846124cf565b91508190509392505050565b7f46726f6d2061646472657373206d75737420626520746f6b656e206f776e6572600082015250565b600061255a602083611a92565b915061256582612524565b602082019050919050565b600060208201905081810360008301526125898161254d565b9050919050565b7f4552433732313a206f70657261746f7220717565727920666f72206e6f6e657860008201527f697374656e7420746f6b656e0000000000000000000000000000000000000000602082015250565b60006125ec602c83611a92565b91506125f782612590565b604082019050919050565b6000602082019050818103600083015261261b816125df565b9050919050565b7f4552433732313a207472616e73666572206f6620746f6b656e2074686174206960008201527f73206e6f74206f776e0000000000000000000000000000000000000000000000602082015250565b600061267e602983611a92565b915061268982612622565b604082019050919050565b600060208201905081810360008301526126ad81612671565b9050919050565b7f4552433732313a207472616e7366657220746f20746865207a65726f2061646460008201527f7265737300000000000000000000000000000000000000000000000000000000602082015250565b6000612710602483611a92565b915061271b826126b4565b604082019050919050565b6000602082019050818103600083015261273f81612703565b9050919050565b7f4e487b7100000000000000000000000000000000000000000000000000000000600052601160045260246000fd5b600061278082611b42565b915061278b83611b42565b92508282101561279e5761279d612746565b5b828203905092915050565b60006127b482611b42565b91506127bf83611b42565b9250827fffffffffffffffffffffffffffffffffffffffffffffffffffffffffffffffff038211156127f4576127f3612746565b5b828201905092915050565b7f4552433732313a20617070726f766520746f2063616c6c657200000000000000600082015250565b6000612835601983611a92565b9150612840826127ff565b602082019050919050565b6000602082019050818103600083015261286481612828565b9050919050565b7f4552433732313a207472616e7366657220746f206e6f6e20455243373231526560008201527f63656976657220696d706c656d656e7465720000000000000000000000000000602082015250565b60006128c7603283611a92565b91506128d28261286b565b604082019050919050565b600060208201905081810360008301526128f6816128ba565b9050919050565b7f4552433732314d657461646174613a2055524920717565727920666f72206e6f60008201527f6e6578697374656e7420746f6b656e0000000000000000000000000000000000602082015250565b6000612959602f83611a92565b9150612964826128fd565b604082019050919050565b600060208201905081810360008301526129888161294c565b9050919050565b7f4552433732313a206d696e7420746f20746865207a65726f2061646472657373600082015250565b60006129c5602083611a92565b91506129d08261298f565b602082019050919050565b600060208201905081810360008301526129f4816129b8565b9050919050565b7f4552433732313a20746f6b656e20616c7265616479206d696e74656400000000600082015250565b6000612a31601c83611a92565b9150612a3c826129fb565b602082019050919050565b60006020820190508181036000830152612a6081612a24565b9050919050565b7f45524337323155524953746f726167653a2055524920736574206f66206e6f6e60008201527f6578697374656e7420746f6b656e000000000000000000000000000000000000602082015250565b6000612ac3602e83611a92565b9150612ace82612a67565b604082019050919050565b60006020820190508181036000830152612af281612ab6565b9050919050565b600081519050919050565b600082825260208201905092915050565b6000612b2082612af9565b612b2a8185612b04565b9350612b3a818560208601611aa3565b612b4381611ad6565b840191505092915050565b6000608082019050612b636000830187611bd7565b612b706020830186611bd7565b612b7d6040830185611ced565b8181036060830152612b8f8184612b15565b905095945050505050565b600081519050612ba9816119f8565b92915050565b600060208284031215612bc557612bc46119c2565b5b6000612bd384828501612b9a565b91505092915050565b6000612be782611b42565b91507fffffffffffffffffffffffffffffffffffffffffffffffffffffffffffffffff821415612c1a57612c19612746565b5b600182019050919050565b7f4e487b7100000000000000000000000000000000000000000000000000000000600052601260045260246000fd5b6000612c5f82611b42565b9150612c6a83611b42565b925082612c7a57612c79612c25565b5b828204905092915050565b6000612c9082611b42565b9150612c9b83611b42565b925082612cab57612caa612c25565b5b828206905092915050565b7f4e487b7100000000000000000000000000000000000000000000000000000000600052603260045260246000fdfea264697066735822122049ea6f23103888b35bf549feb11953bfe7f5d3f65b93733a20e41b89974ba6b164736f6c634300080b0033",
  "immutableReferences": {},
  "source": "// SPDX-License-Identifier: MIT\npragma solidity >=0.4.22 <0.9.0;\n\nimport \"@openzeppelin/contracts/utils/Counters.sol\";\nimport \"@openzeppelin/contracts/token/ERC721/extensions/ERC721URIStorage.sol\";\nimport \"@openzeppelin/contracts/token/ERC721/extensions/ERC721Enumerable.sol\";\nimport \"@openzeppelin/contracts/token/ERC721/ERC721.sol\";\n\n\n\ncontract NFT is ERC721URIStorage{\n\n    using Counters for Counters.Counter;\n    Counters.Counter private nftTokenId;\n\n\n    address contractAddress;\n\n    constructor(address marketplaceAddress)ERC721(\"arabicNFt\",\"arNFT\"){\n\n        contractAddress = marketplaceAddress;\n\n    }\n\n    function createNFtToken(string memory nftTokenURl)public  returns (uint256){\n        nftTokenId.increment();\n        uint256 id = nftTokenId.current();\n        _mint(msg.sender,id);\n\n        _setTokenURI(id,nftTokenURl);\n   \n        setApprovalForAll  (contractAddress,true);\n    \n\n        return id;\n    \n    }\n    //Transfate nft after\n\n  function transferToken(address from, address to, uint256 tokenId) external {\n        require(ownerOf(tokenId) == from, \"From address must be token owner\");\n        _transfer(from, to, tokenId);\n    }\n\n\n    function getContractAddress() public view returns (address){\n      return contractAddress;\n    }\n\n\n}",
  "sourcePath": "/Users/mrbebo/Main Hard/Projects/Freelancer Job/ ISORAW/IsoRaw_semi_NFt_Marketplace/contracts/NFT.sol",
  "compiler": {
    "name": "solc",
    "version": "0.8.11+commit.d7f03943.Emscripten.clang"
  },
  "schemaVersion": "3.4.4",
  "updatedAt": "2022-01-28T18:55:33.882Z",
  "networkType": "ethereum",
  "devdoc": {
    "kind": "dev",
    "methods": {
      "approve(address,uint256)": {
        "details": "See {IERC721-approve}."
      },
      "balanceOf(address)": {
        "details": "See {IERC721-balanceOf}."
      },
      "getApproved(uint256)": {
        "details": "See {IERC721-getApproved}."
      },
      "isApprovedForAll(address,address)": {
        "details": "See {IERC721-isApprovedForAll}."
      },
      "name()": {
        "details": "See {IERC721Metadata-name}."
      },
      "ownerOf(uint256)": {
        "details": "See {IERC721-ownerOf}."
      },
      "safeTransferFrom(address,address,uint256)": {
        "details": "See {IERC721-safeTransferFrom}."
      },
      "safeTransferFrom(address,address,uint256,bytes)": {
        "details": "See {IERC721-safeTransferFrom}."
      },
      "setApprovalForAll(address,bool)": {
        "details": "See {IERC721-setApprovalForAll}."
      },
      "supportsInterface(bytes4)": {
        "details": "See {IERC165-supportsInterface}."
      },
      "symbol()": {
        "details": "See {IERC721Metadata-symbol}."
      },
      "tokenURI(uint256)": {
        "details": "See {IERC721Metadata-tokenURI}."
      },
      "transferFrom(address,address,uint256)": {
        "details": "See {IERC721-transferFrom}."
      }
    },
    "version": 1
  },
  "userdoc": {
    "kind": "user",
    "methods": {},
    "version": 1
  }
}