{
  "contractName": "NFTMarketPlace",
  "abi": [
    {
      "inputs": [],
      "stateMutability": "nonpayable",
      "type": "constructor"
    },
    {
      "anonymous": false,
      "inputs": [
        {
          "indexed": false,
          "internalType": "uint256",
          "name": "id",
          "type": "uint256"
        }
      ],
      "name": "MarketItemDeleted",
      "type": "event"
    },
    {
      "anonymous": false,
      "inputs": [
        {
          "indexed": true,
          "internalType": "address",
          "name": "nftContract",
          "type": "address"
        },
        {
          "indexed": true,
          "internalType": "uint256",
          "name": "id",
          "type": "uint256"
        },
        {
          "indexed": false,
          "internalType": "uint256",
          "name": "tokenId",
          "type": "uint256"
        },
        {
          "indexed": false,
          "internalType": "address",
          "name": "creator",
          "type": "address"
        },
        {
          "indexed": false,
          "internalType": "address",
          "name": "seller",
          "type": "address"
        },
        {
          "indexed": false,
          "internalType": "address",
          "name": "owner",
          "type": "address"
        },
        {
          "indexed": false,
          "internalType": "uint256",
          "name": "price",
          "type": "uint256"
        },
        {
          "indexed": false,
          "internalType": "bool",
          "name": "sold",
          "type": "bool"
        },
        {
          "indexed": false,
          "internalType": "address",
          "name": "oldOwner",
          "type": "address"
        },
        {
          "indexed": false,
          "internalType": "address",
          "name": "oldSeller",
          "type": "address"
        },
        {
          "indexed": false,
          "internalType": "uint256",
          "name": "oldPrice",
          "type": "uint256"
        },
        {
          "indexed": false,
          "internalType": "bool",
          "name": "isResell",
          "type": "bool"
        }
      ],
      "name": "NftMarketItemCreated",
      "type": "event"
    },
    {
      "anonymous": false,
      "inputs": [
        {
          "indexed": true,
          "internalType": "uint256",
          "name": "itemId",
          "type": "uint256"
        }
      ],
      "name": "ProductListed",
      "type": "event"
    },
    {
      "anonymous": false,
      "inputs": [
        {
          "indexed": true,
          "internalType": "uint256",
          "name": "id",
          "type": "uint256"
        },
        {
          "indexed": true,
          "internalType": "address",
          "name": "nftContract",
          "type": "address"
        },
        {
          "indexed": true,
          "internalType": "uint256",
          "name": "tokenId",
          "type": "uint256"
        },
        {
          "indexed": false,
          "internalType": "address",
          "name": "creator",
          "type": "address"
        },
        {
          "indexed": false,
          "internalType": "address",
          "name": "seller",
          "type": "address"
        },
        {
          "indexed": false,
          "internalType": "address",
          "name": "owner",
          "type": "address"
        },
        {
          "indexed": false,
          "internalType": "uint256",
          "name": "price",
          "type": "uint256"
        },
        {
          "indexed": false,
          "internalType": "address",
          "name": "oldOwner",
          "type": "address"
        },
        {
          "indexed": false,
          "internalType": "address",
          "name": "oldSeller",
          "type": "address"
        },
        {
          "indexed": false,
          "internalType": "uint256",
          "name": "oldPrice",
          "type": "uint256"
        },
        {
          "indexed": false,
          "internalType": "bool",
          "name": "isResell",
          "type": "bool"
        }
      ],
      "name": "ProductSold",
      "type": "event"
    },
    {
      "anonymous": false,
      "inputs": [
        {
          "indexed": true,
          "internalType": "uint256",
          "name": "id",
          "type": "uint256"
        },
        {
          "indexed": true,
          "internalType": "uint256",
          "name": "newPrice",
          "type": "uint256"
        },
        {
          "indexed": false,
          "internalType": "bool",
          "name": "sold",
          "type": "bool"
        },
        {
          "indexed": false,
          "internalType": "address",
          "name": "owner",
          "type": "address"
        },
        {
          "indexed": false,
          "internalType": "address",
          "name": "seller",
          "type": "address"
        }
      ],
      "name": "ProductUpdated",
      "type": "event"
    },
    {
      "inputs": [],
      "name": "gettheMarketFees",
      "outputs": [
        {
          "internalType": "uint256",
          "name": "",
          "type": "uint256"
        }
      ],
      "stateMutability": "view",
      "type": "function",
      "constant": true
    },
    {
      "inputs": [
        {
          "internalType": "address",
          "name": "nftContract",
          "type": "address"
        },
        {
          "internalType": "uint256",
          "name": "tokenId",
          "type": "uint256"
        },
        {
          "internalType": "uint256",
          "name": "price",
          "type": "uint256"
        }
      ],
      "name": "createItemForSale",
      "outputs": [],
      "stateMutability": "payable",
      "type": "function",
      "payable": true
    },
    {
      "inputs": [
        {
          "internalType": "address",
          "name": "nftContract",
          "type": "address"
        },
        {
          "internalType": "uint256",
          "name": "id",
          "type": "uint256"
        },
        {
          "internalType": "uint256",
          "name": "tokenId",
          "type": "uint256"
        }
      ],
      "name": "updateMarketItem",
      "outputs": [],
      "stateMutability": "payable",
      "type": "function",
      "payable": true
    },
    {
      "inputs": [
        {
          "internalType": "address",
          "name": "nftContract",
          "type": "address"
        },
        {
          "internalType": "uint256",
          "name": "nftItemId",
          "type": "uint256"
        }
      ],
      "name": "createMarketForSale",
      "outputs": [],
      "stateMutability": "payable",
      "type": "function",
      "payable": true
    },
    {
      "inputs": [
        {
          "internalType": "address",
          "name": "nftContract",
          "type": "address"
        },
        {
          "internalType": "uint256",
          "name": "nftItemId",
          "type": "uint256"
        }
      ],
      "name": "cancelResellWitholdPrice",
      "outputs": [],
      "stateMutability": "payable",
      "type": "function",
      "payable": true
    },
    {
      "inputs": [
        {
          "internalType": "address",
          "name": "nftContract",
          "type": "address"
        },
        {
          "internalType": "uint256",
          "name": "itemId",
          "type": "uint256"
        },
        {
          "internalType": "uint256",
          "name": "newPrice",
          "type": "uint256"
        }
      ],
      "name": "putItemToResell",
      "outputs": [],
      "stateMutability": "payable",
      "type": "function",
      "payable": true
    },
    {
      "inputs": [
        {
          "internalType": "uint256",
          "name": "id",
          "type": "uint256"
        }
      ],
      "name": "fetchSingleItem",
      "outputs": [
        {
          "components": [
            {
              "internalType": "address",
              "name": "nftContract",
              "type": "address"
            },
            {
              "internalType": "uint256",
              "name": "id",
              "type": "uint256"
            },
            {
              "internalType": "uint256",
              "name": "tokenId",
              "type": "uint256"
            },
            {
              "internalType": "address payable",
              "name": "creator",
              "type": "address"
            },
            {
              "internalType": "address payable",
              "name": "seller",
              "type": "address"
            },
            {
              "internalType": "address payable",
              "name": "owner",
              "type": "address"
            },
            {
              "internalType": "uint256",
              "name": "price",
              "type": "uint256"
            },
            {
              "internalType": "bool",
              "name": "sold",
              "type": "bool"
            },
            {
              "internalType": "address",
              "name": "oldOwner",
              "type": "address"
            },
            {
              "internalType": "address",
              "name": "oldSeller",
              "type": "address"
            },
            {
              "internalType": "uint256",
              "name": "oldPrice",
              "type": "uint256"
            },
            {
              "internalType": "bool",
              "name": "isResell",
              "type": "bool"
            }
          ],
          "internalType": "struct NFTMarketPlace.NftMarketItem",
          "name": "",
          "type": "tuple"
        }
      ],
      "stateMutability": "view",
      "type": "function",
      "constant": true
    },
    {
      "inputs": [],
      "name": "getMyItemCreated",
      "outputs": [
        {
          "components": [
            {
              "internalType": "address",
              "name": "nftContract",
              "type": "address"
            },
            {
              "internalType": "uint256",
              "name": "id",
              "type": "uint256"
            },
            {
              "internalType": "uint256",
              "name": "tokenId",
              "type": "uint256"
            },
            {
              "internalType": "address payable",
              "name": "creator",
              "type": "address"
            },
            {
              "internalType": "address payable",
              "name": "seller",
              "type": "address"
            },
            {
              "internalType": "address payable",
              "name": "owner",
              "type": "address"
            },
            {
              "internalType": "uint256",
              "name": "price",
              "type": "uint256"
            },
            {
              "internalType": "bool",
              "name": "sold",
              "type": "bool"
            },
            {
              "internalType": "address",
              "name": "oldOwner",
              "type": "address"
            },
            {
              "internalType": "address",
              "name": "oldSeller",
              "type": "address"
            },
            {
              "internalType": "uint256",
              "name": "oldPrice",
              "type": "uint256"
            },
            {
              "internalType": "bool",
              "name": "isResell",
              "type": "bool"
            }
          ],
          "internalType": "struct NFTMarketPlace.NftMarketItem[]",
          "name": "",
          "type": "tuple[]"
        }
      ],
      "stateMutability": "view",
      "type": "function",
      "constant": true
    },
    {
      "inputs": [],
      "name": "getMyItemsolod",
      "outputs": [
        {
          "components": [
            {
              "internalType": "address",
              "name": "nftContract",
              "type": "address"
            },
            {
              "internalType": "uint256",
              "name": "id",
              "type": "uint256"
            },
            {
              "internalType": "uint256",
              "name": "tokenId",
              "type": "uint256"
            },
            {
              "internalType": "address payable",
              "name": "creator",
              "type": "address"
            },
            {
              "internalType": "address payable",
              "name": "seller",
              "type": "address"
            },
            {
              "internalType": "address payable",
              "name": "owner",
              "type": "address"
            },
            {
              "internalType": "uint256",
              "name": "price",
              "type": "uint256"
            },
            {
              "internalType": "bool",
              "name": "sold",
              "type": "bool"
            },
            {
              "internalType": "address",
              "name": "oldOwner",
              "type": "address"
            },
            {
              "internalType": "address",
              "name": "oldSeller",
              "type": "address"
            },
            {
              "internalType": "uint256",
              "name": "oldPrice",
              "type": "uint256"
            },
            {
              "internalType": "bool",
              "name": "isResell",
              "type": "bool"
            }
          ],
          "internalType": "struct NFTMarketPlace.NftMarketItem[]",
          "name": "",
          "type": "tuple[]"
        }
      ],
      "stateMutability": "view",
      "type": "function",
      "constant": true
    },
    {
      "inputs": [],
      "name": "getMyNFTPurchased",
      "outputs": [
        {
          "components": [
            {
              "internalType": "address",
              "name": "nftContract",
              "type": "address"
            },
            {
              "internalType": "uint256",
              "name": "id",
              "type": "uint256"
            },
            {
              "internalType": "uint256",
              "name": "tokenId",
              "type": "uint256"
            },
            {
              "internalType": "address payable",
              "name": "creator",
              "type": "address"
            },
            {
              "internalType": "address payable",
              "name": "seller",
              "type": "address"
            },
            {
              "internalType": "address payable",
              "name": "owner",
              "type": "address"
            },
            {
              "internalType": "uint256",
              "name": "price",
              "type": "uint256"
            },
            {
              "internalType": "bool",
              "name": "sold",
              "type": "bool"
            },
            {
              "internalType": "address",
              "name": "oldOwner",
              "type": "address"
            },
            {
              "internalType": "address",
              "name": "oldSeller",
              "type": "address"
            },
            {
              "internalType": "uint256",
              "name": "oldPrice",
              "type": "uint256"
            },
            {
              "internalType": "bool",
              "name": "isResell",
              "type": "bool"
            }
          ],
          "internalType": "struct NFTMarketPlace.NftMarketItem[]",
          "name": "",
          "type": "tuple[]"
        }
      ],
      "stateMutability": "view",
      "type": "function",
      "constant": true
    },
    {
      "inputs": [],
      "name": "getAllUnsoldItems",
      "outputs": [
        {
          "components": [
            {
              "internalType": "address",
              "name": "nftContract",
              "type": "address"
            },
            {
              "internalType": "uint256",
              "name": "id",
              "type": "uint256"
            },
            {
              "internalType": "uint256",
              "name": "tokenId",
              "type": "uint256"
            },
            {
              "internalType": "address payable",
              "name": "creator",
              "type": "address"
            },
            {
              "internalType": "address payable",
              "name": "seller",
              "type": "address"
            },
            {
              "internalType": "address payable",
              "name": "owner",
              "type": "address"
            },
            {
              "internalType": "uint256",
              "name": "price",
              "type": "uint256"
            },
            {
              "internalType": "bool",
              "name": "sold",
              "type": "bool"
            },
            {
              "internalType": "address",
              "name": "oldOwner",
              "type": "address"
            },
            {
              "internalType": "address",
              "name": "oldSeller",
              "type": "address"
            },
            {
              "internalType": "uint256",
              "name": "oldPrice",
              "type": "uint256"
            },
            {
              "internalType": "bool",
              "name": "isResell",
              "type": "bool"
            }
          ],
          "internalType": "struct NFTMarketPlace.NftMarketItem[]",
          "name": "",
          "type": "tuple[]"
        }
      ],
      "stateMutability": "view",
      "type": "function",
      "constant": true
    },
    {
      "inputs": [],
      "name": "getMyResellItems",
      "outputs": [
        {
          "components": [
            {
              "internalType": "address",
              "name": "nftContract",
              "type": "address"
            },
            {
              "internalType": "uint256",
              "name": "id",
              "type": "uint256"
            },
            {
              "internalType": "uint256",
              "name": "tokenId",
              "type": "uint256"
            },
            {
              "internalType": "address payable",
              "name": "creator",
              "type": "address"
            },
            {
              "internalType": "address payable",
              "name": "seller",
              "type": "address"
            },
            {
              "internalType": "address payable",
              "name": "owner",
              "type": "address"
            },
            {
              "internalType": "uint256",
              "name": "price",
              "type": "uint256"
            },
            {
              "internalType": "bool",
              "name": "sold",
              "type": "bool"
            },
            {
              "internalType": "address",
              "name": "oldOwner",
              "type": "address"
            },
            {
              "internalType": "address",
              "name": "oldSeller",
              "type": "address"
            },
            {
              "internalType": "uint256",
              "name": "oldPrice",
              "type": "uint256"
            },
            {
              "internalType": "bool",
              "name": "isResell",
              "type": "bool"
            }
          ],
          "internalType": "struct NFTMarketPlace.NftMarketItem[]",
          "name": "",
          "type": "tuple[]"
        }
      ],
      "stateMutability": "view",
      "type": "function",
      "constant": true
    }
  ],
  "bytecode": "0x6080604052662386f26fc1000060025534801561001b57600080fd5b50600160008190555033600160006101000a81548173ffffffffffffffffffffffffffffffffffffffff021916908373ffffffffffffffffffffffffffffffffffffffff160217905550613c5e806100746000396000f3fe6080604052600436106100a75760003560e01c80639e31e655116100645780639e31e65514610181578063a2bf932a146101ac578063a3c32044146101e9578063a3cf6c5814610214578063bca5244214610230578063c7a5bc4e1461025b576100a7565b806325135cbf146100ac578063394f9a8f146100d7578063446269e61461010257806357e9b6cc1461012d57806358271fff14610149578063858c295314610165575b600080fd5b3480156100b857600080fd5b506100c1610277565b6040516100ce9190613250565b60405180910390f35b3480156100e357600080fd5b506100ec610669565b6040516100f99190613250565b60405180910390f35b34801561010e57600080fd5b50610117610adf565b6040516101249190613250565b60405180910390f35b610147600480360381019061014291906132cf565b610f55565b005b610163600480360381019061015e919061330f565b61127a565b005b61017f600480360381019061017a91906132cf565b6116d4565b005b34801561018d57600080fd5b50610196611a70565b6040516101a39190613250565b60405180910390f35b3480156101b857600080fd5b506101d360048036038101906101ce9190613362565b611ee6565b6040516101e09190613485565b60405180910390f35b3480156101f557600080fd5b506101fe612176565b60405161020b9190613250565b60405180910390f35b61022e6004803603810190610229919061330f565b61266a565b005b34801561023c57600080fd5b50610245612958565b60405161025291906134b0565b60405180910390f35b6102756004803603810190610270919061330f565b612962565b005b606060006102856003612eab565b905060006102936004612eab565b61029d6003612eab565b6102a791906134fa565b90506000808267ffffffffffffffff8111156102c6576102c561352e565b5b6040519080825280602002602001820160405280156102ff57816020015b6102ec612f2b565b8152602001906001900390816102e45790505b50905060005b8481101561065e57600073ffffffffffffffffffffffffffffffffffffffff1660066000600184610336919061355d565b815260200190815260200160002060050160009054906101000a900473ffffffffffffffffffffffffffffffffffffffff1673ffffffffffffffffffffffffffffffffffffffff16141561064b576000600182610393919061355d565b9050600060066000838152602001908152602001600020905080604051806101800160405290816000820160009054906101000a900473ffffffffffffffffffffffffffffffffffffffff1673ffffffffffffffffffffffffffffffffffffffff1673ffffffffffffffffffffffffffffffffffffffff16815260200160018201548152602001600282015481526020016003820160009054906101000a900473ffffffffffffffffffffffffffffffffffffffff1673ffffffffffffffffffffffffffffffffffffffff1673ffffffffffffffffffffffffffffffffffffffff1681526020016004820160009054906101000a900473ffffffffffffffffffffffffffffffffffffffff1673ffffffffffffffffffffffffffffffffffffffff1673ffffffffffffffffffffffffffffffffffffffff1681526020016005820160009054906101000a900473ffffffffffffffffffffffffffffffffffffffff1673ffffffffffffffffffffffffffffffffffffffff1673ffffffffffffffffffffffffffffffffffffffff168152602001600682015481526020016007820160009054906101000a900460ff161515151581526020016007820160019054906101000a900473ffffffffffffffffffffffffffffffffffffffff1673ffffffffffffffffffffffffffffffffffffffff1673ffffffffffffffffffffffffffffffffffffffff1681526020016008820160009054906101000a900473ffffffffffffffffffffffffffffffffffffffff1673ffffffffffffffffffffffffffffffffffffffff1673ffffffffffffffffffffffffffffffffffffffff16815260200160098201548152602001600a820160009054906101000a900460ff16151515158152505084868151811061062e5761062d6135b3565b5b6020026020010181905250600185610646919061355d565b945050505b8080610656906135e2565b915050610305565b508094505050505090565b606060006106776003612eab565b905060008060005b83811015610720573373ffffffffffffffffffffffffffffffffffffffff16600660006001846106af919061355d565b815260200190815260200160002060040160009054906101000a900473ffffffffffffffffffffffffffffffffffffffff1673ffffffffffffffffffffffffffffffffffffffff16141561070d5760018361070a919061355d565b92505b8080610718906135e2565b91505061067f565b5060008267ffffffffffffffff81111561073d5761073c61352e565b5b60405190808252806020026020018201604052801561077657816020015b610763612f2b565b81526020019060019003908161075b5790505b50905060005b84811015610ad4573373ffffffffffffffffffffffffffffffffffffffff16600660006001846107ac919061355d565b815260200190815260200160002060040160009054906101000a900473ffffffffffffffffffffffffffffffffffffffff1673ffffffffffffffffffffffffffffffffffffffff161415610ac1576000600182610809919061355d565b9050600060066000838152602001908152602001600020905080604051806101800160405290816000820160009054906101000a900473ffffffffffffffffffffffffffffffffffffffff1673ffffffffffffffffffffffffffffffffffffffff1673ffffffffffffffffffffffffffffffffffffffff16815260200160018201548152602001600282015481526020016003820160009054906101000a900473ffffffffffffffffffffffffffffffffffffffff1673ffffffffffffffffffffffffffffffffffffffff1673ffffffffffffffffffffffffffffffffffffffff1681526020016004820160009054906101000a900473ffffffffffffffffffffffffffffffffffffffff1673ffffffffffffffffffffffffffffffffffffffff1673ffffffffffffffffffffffffffffffffffffffff1681526020016005820160009054906101000a900473ffffffffffffffffffffffffffffffffffffffff1673ffffffffffffffffffffffffffffffffffffffff1673ffffffffffffffffffffffffffffffffffffffff168152602001600682015481526020016007820160009054906101000a900460ff161515151581526020016007820160019054906101000a900473ffffffffffffffffffffffffffffffffffffffff1673ffffffffffffffffffffffffffffffffffffffff1673ffffffffffffffffffffffffffffffffffffffff1681526020016008820160009054906101000a900473ffffffffffffffffffffffffffffffffffffffff1673ffffffffffffffffffffffffffffffffffffffff1673ffffffffffffffffffffffffffffffffffffffff16815260200160098201548152602001600a820160009054906101000a900460ff161515151581525050848681518110610aa457610aa36135b3565b5b6020026020010181905250600185610abc919061355d565b945050505b8080610acc906135e2565b91505061077c565b508094505050505090565b60606000610aed6003612eab565b905060008060005b83811015610b96573373ffffffffffffffffffffffffffffffffffffffff1660066000600184610b25919061355d565b815260200190815260200160002060050160009054906101000a900473ffffffffffffffffffffffffffffffffffffffff1673ffffffffffffffffffffffffffffffffffffffff161415610b8357600183610b80919061355d565b92505b8080610b8e906135e2565b915050610af5565b5060008267ffffffffffffffff811115610bb357610bb261352e565b5b604051908082528060200260200182016040528015610bec57816020015b610bd9612f2b565b815260200190600190039081610bd15790505b50905060005b84811015610f4a573373ffffffffffffffffffffffffffffffffffffffff1660066000600184610c22919061355d565b815260200190815260200160002060050160009054906101000a900473ffffffffffffffffffffffffffffffffffffffff1673ffffffffffffffffffffffffffffffffffffffff161415610f37576000600182610c7f919061355d565b9050600060066000838152602001908152602001600020905080604051806101800160405290816000820160009054906101000a900473ffffffffffffffffffffffffffffffffffffffff1673ffffffffffffffffffffffffffffffffffffffff1673ffffffffffffffffffffffffffffffffffffffff16815260200160018201548152602001600282015481526020016003820160009054906101000a900473ffffffffffffffffffffffffffffffffffffffff1673ffffffffffffffffffffffffffffffffffffffff1673ffffffffffffffffffffffffffffffffffffffff1681526020016004820160009054906101000a900473ffffffffffffffffffffffffffffffffffffffff1673ffffffffffffffffffffffffffffffffffffffff1673ffffffffffffffffffffffffffffffffffffffff1681526020016005820160009054906101000a900473ffffffffffffffffffffffffffffffffffffffff1673ffffffffffffffffffffffffffffffffffffffff1673ffffffffffffffffffffffffffffffffffffffff168152602001600682015481526020016007820160009054906101000a900460ff161515151581526020016007820160019054906101000a900473ffffffffffffffffffffffffffffffffffffffff1673ffffffffffffffffffffffffffffffffffffffff1673ffffffffffffffffffffffffffffffffffffffff1681526020016008820160009054906101000a900473ffffffffffffffffffffffffffffffffffffffff1673ffffffffffffffffffffffffffffffffffffffff1673ffffffffffffffffffffffffffffffffffffffff16815260200160098201548152602001600a820160009054906101000a900460ff161515151581525050848681518110610f1a57610f196135b3565b5b6020026020010181905250600185610f32919061355d565b945050505b8080610f42906135e2565b915050610bf2565b508094505050505090565b60026000541415610f9b576040517f08c379a0000000000000000000000000000000000000000000000000000000008152600401610f9290613688565b60405180910390fd5b60026000819055506000600660008381526020019081526020016000206006015490506000600660008481526020019081526020016000206002015490508373ffffffffffffffffffffffffffffffffffffffff166323b872dd3033846040518463ffffffff1660e01b8152600401611016939291906136b7565b600060405180830381600087803b15801561103057600080fd5b505af1158015611044573d6000803e3d6000fd5b50505050336006600085815260200190815260200160002060050160006101000a81548173ffffffffffffffffffffffffffffffffffffffff021916908373ffffffffffffffffffffffffffffffffffffffff16021790555060016006600085815260200190815260200160002060070160006101000a81548160ff021916908315150217905550600160066000858152602001908152602001600020600a0160006101000a81548160ff0219169083151502179055506111056004612eb9565b60066000848152602001908152602001600020600201546006600085815260200190815260200160002060000160009054906101000a900473ffffffffffffffffffffffffffffffffffffffff1673ffffffffffffffffffffffffffffffffffffffff1660066000868152602001908152602001600020600101547fab47c87ce5bb9a766199be058dc64048cddc53e92f4bc46d413a1e9484e770cd6006600088815260200190815260200160002060030160009054906101000a900473ffffffffffffffffffffffffffffffffffffffff166006600089815260200190815260200160002060040160009054906101000a900473ffffffffffffffffffffffffffffffffffffffff1633600660008b8152602001908152602001600020600601546000806000600660008f8152602001908152602001600020600a0160009054906101000a900460ff16604051611264989796959493929190613797565b60405180910390a4505060016000819055505050565b600260005414156112c0576040517f08c379a00000000000000000000000000000000000000000000000000000000081526004016112b790613688565b60405180910390fd5b6002600081905550813373ffffffffffffffffffffffffffffffffffffffff166006600083815260200190815260200160002060050160009054906101000a900473ffffffffffffffffffffffffffffffffffffffff1673ffffffffffffffffffffffffffffffffffffffff161461136d576040517f08c379a000000000000000000000000000000000000000000000000000000000815260040161136490613887565b60405180910390fd5b600060066000858152602001908152602001600020600201549050600083116113cb576040517f08c379a00000000000000000000000000000000000000000000000000000000081526004016113c2906138f3565b60405180910390fd5b60008590508073ffffffffffffffffffffffffffffffffffffffff1663f5537ede3330856040518463ffffffff1660e01b815260040161140d939291906136b7565b600060405180830381600087803b15801561142757600080fd5b505af115801561143b573d6000803e3d6000fd5b5050505060006006600087815260200190815260200160002060050160009054906101000a900473ffffffffffffffffffffffffffffffffffffffff16905060006006600088815260200190815260200160002060040160009054906101000a900473ffffffffffffffffffffffffffffffffffffffff1690506000600660008981526020019081526020016000206006015490506000600660008a815260200190815260200160002060050160006101000a81548173ffffffffffffffffffffffffffffffffffffffff021916908373ffffffffffffffffffffffffffffffffffffffff16021790555082600660008a815260200190815260200160002060040160006101000a81548173ffffffffffffffffffffffffffffffffffffffff021916908373ffffffffffffffffffffffffffffffffffffffff16021790555086600660008a8152602001908152602001600020600601819055506000600660008a815260200190815260200160002060070160006101000a81548160ff02191690831515021790555082600660008a815260200190815260200160002060070160016101000a81548173ffffffffffffffffffffffffffffffffffffffff021916908373ffffffffffffffffffffffffffffffffffffffff16021790555081600660008a815260200190815260200160002060080160006101000a81548173ffffffffffffffffffffffffffffffffffffffff021916908373ffffffffffffffffffffffffffffffffffffffff16021790555080600660008a8152602001908152602001600020600901819055506116946004612ecf565b877f221866c21613d6f0d77d42f9309b122a25deed1bc186cff9c2f1ddafc52c34f660405160405180910390a25050505050506001600081905550505050565b6002600054141561171a576040517f08c379a000000000000000000000000000000000000000000000000000000000815260040161171190613688565b60405180910390fd5b60026000819055506000600660008381526020019081526020016000206009015490506000600660008481526020019081526020016000206002015490508373ffffffffffffffffffffffffffffffffffffffff166323b872dd3033846040518463ffffffff1660e01b8152600401611795939291906136b7565b600060405180830381600087803b1580156117af57600080fd5b505af11580156117c3573d6000803e3d6000fd5b50505050336006600085815260200190815260200160002060050160006101000a81548173ffffffffffffffffffffffffffffffffffffffff021916908373ffffffffffffffffffffffffffffffffffffffff1602179055508160066000858152602001908152602001600020600601819055506006600084815260200190815260200160002060080160009054906101000a900473ffffffffffffffffffffffffffffffffffffffff166006600085815260200190815260200160002060040160006101000a81548173ffffffffffffffffffffffffffffffffffffffff021916908373ffffffffffffffffffffffffffffffffffffffff16021790555060016006600085815260200190815260200160002060070160006101000a81548160ff0219169083151502179055506118fb6004612eb9565b60066000848152602001908152602001600020600201546006600085815260200190815260200160002060000160009054906101000a900473ffffffffffffffffffffffffffffffffffffffff1673ffffffffffffffffffffffffffffffffffffffff1660066000868152602001908152602001600020600101547fab47c87ce5bb9a766199be058dc64048cddc53e92f4bc46d413a1e9484e770cd6006600088815260200190815260200160002060030160009054906101000a900473ffffffffffffffffffffffffffffffffffffffff166006600089815260200190815260200160002060040160009054906101000a900473ffffffffffffffffffffffffffffffffffffffff1633600660008b8152602001908152602001600020600601546000806000600660008f8152602001908152602001600020600a0160009054906101000a900460ff16604051611a5a989796959493929190613797565b60405180910390a4505060016000819055505050565b60606000611a7e6003612eab565b905060008060005b83811015611b27573373ffffffffffffffffffffffffffffffffffffffff1660066000600184611ab6919061355d565b815260200190815260200160002060030160009054906101000a900473ffffffffffffffffffffffffffffffffffffffff1673ffffffffffffffffffffffffffffffffffffffff161415611b1457600183611b11919061355d565b92505b8080611b1f906135e2565b915050611a86565b5060008267ffffffffffffffff811115611b4457611b4361352e565b5b604051908082528060200260200182016040528015611b7d57816020015b611b6a612f2b565b815260200190600190039081611b625790505b50905060005b84811015611edb573373ffffffffffffffffffffffffffffffffffffffff1660066000600184611bb3919061355d565b815260200190815260200160002060030160009054906101000a900473ffffffffffffffffffffffffffffffffffffffff1673ffffffffffffffffffffffffffffffffffffffff161415611ec8576000600182611c10919061355d565b9050600060066000838152602001908152602001600020905080604051806101800160405290816000820160009054906101000a900473ffffffffffffffffffffffffffffffffffffffff1673ffffffffffffffffffffffffffffffffffffffff1673ffffffffffffffffffffffffffffffffffffffff16815260200160018201548152602001600282015481526020016003820160009054906101000a900473ffffffffffffffffffffffffffffffffffffffff1673ffffffffffffffffffffffffffffffffffffffff1673ffffffffffffffffffffffffffffffffffffffff1681526020016004820160009054906101000a900473ffffffffffffffffffffffffffffffffffffffff1673ffffffffffffffffffffffffffffffffffffffff1673ffffffffffffffffffffffffffffffffffffffff1681526020016005820160009054906101000a900473ffffffffffffffffffffffffffffffffffffffff1673ffffffffffffffffffffffffffffffffffffffff1673ffffffffffffffffffffffffffffffffffffffff168152602001600682015481526020016007820160009054906101000a900460ff161515151581526020016007820160019054906101000a900473ffffffffffffffffffffffffffffffffffffffff1673ffffffffffffffffffffffffffffffffffffffff1673ffffffffffffffffffffffffffffffffffffffff1681526020016008820160009054906101000a900473ffffffffffffffffffffffffffffffffffffffff1673ffffffffffffffffffffffffffffffffffffffff1673ffffffffffffffffffffffffffffffffffffffff16815260200160098201548152602001600a820160009054906101000a900460ff161515151581525050848681518110611eab57611eaa6135b3565b5b6020026020010181905250600185611ec3919061355d565b945050505b8080611ed3906135e2565b915050611b83565b508094505050505090565b611eee612f2b565b60066000838152602001908152602001600020604051806101800160405290816000820160009054906101000a900473ffffffffffffffffffffffffffffffffffffffff1673ffffffffffffffffffffffffffffffffffffffff1673ffffffffffffffffffffffffffffffffffffffff16815260200160018201548152602001600282015481526020016003820160009054906101000a900473ffffffffffffffffffffffffffffffffffffffff1673ffffffffffffffffffffffffffffffffffffffff1673ffffffffffffffffffffffffffffffffffffffff1681526020016004820160009054906101000a900473ffffffffffffffffffffffffffffffffffffffff1673ffffffffffffffffffffffffffffffffffffffff1673ffffffffffffffffffffffffffffffffffffffff1681526020016005820160009054906101000a900473ffffffffffffffffffffffffffffffffffffffff1673ffffffffffffffffffffffffffffffffffffffff1673ffffffffffffffffffffffffffffffffffffffff168152602001600682015481526020016007820160009054906101000a900460ff161515151581526020016007820160019054906101000a900473ffffffffffffffffffffffffffffffffffffffff1673ffffffffffffffffffffffffffffffffffffffff1673ffffffffffffffffffffffffffffffffffffffff1681526020016008820160009054906101000a900473ffffffffffffffffffffffffffffffffffffffff1673ffffffffffffffffffffffffffffffffffffffff1673ffffffffffffffffffffffffffffffffffffffff16815260200160098201548152602001600a820160009054906101000a900460ff1615151515815250509050919050565b606060006121846003612eab565b905060008060005b8381101561226c573373ffffffffffffffffffffffffffffffffffffffff16600660006001846121bc919061355d565b815260200190815260200160002060040160009054906101000a900473ffffffffffffffffffffffffffffffffffffffff1673ffffffffffffffffffffffffffffffffffffffff1614801561224457506000151560066000600184612221919061355d565b815260200190815260200160002060070160009054906101000a900460ff161515145b1561225957600183612256919061355d565b92505b8080612264906135e2565b91505061218c565b5060008267ffffffffffffffff8111156122895761228861352e565b5b6040519080825280602002602001820160405280156122c257816020015b6122af612f2b565b8152602001906001900390816122a75790505b50905060005b8481101561265f573373ffffffffffffffffffffffffffffffffffffffff16600660006001846122f8919061355d565b815260200190815260200160002060040160009054906101000a900473ffffffffffffffffffffffffffffffffffffffff1673ffffffffffffffffffffffffffffffffffffffff161480156123805750600015156006600060018461235d919061355d565b815260200190815260200160002060070160009054906101000a900460ff161515145b1561264c576000600182612394919061355d565b9050600060066000838152602001908152602001600020905080604051806101800160405290816000820160009054906101000a900473ffffffffffffffffffffffffffffffffffffffff1673ffffffffffffffffffffffffffffffffffffffff1673ffffffffffffffffffffffffffffffffffffffff16815260200160018201548152602001600282015481526020016003820160009054906101000a900473ffffffffffffffffffffffffffffffffffffffff1673ffffffffffffffffffffffffffffffffffffffff1673ffffffffffffffffffffffffffffffffffffffff1681526020016004820160009054906101000a900473ffffffffffffffffffffffffffffffffffffffff1673ffffffffffffffffffffffffffffffffffffffff1673ffffffffffffffffffffffffffffffffffffffff1681526020016005820160009054906101000a900473ffffffffffffffffffffffffffffffffffffffff1673ffffffffffffffffffffffffffffffffffffffff1673ffffffffffffffffffffffffffffffffffffffff168152602001600682015481526020016007820160009054906101000a900460ff161515151581526020016007820160019054906101000a900473ffffffffffffffffffffffffffffffffffffffff1673ffffffffffffffffffffffffffffffffffffffff1673ffffffffffffffffffffffffffffffffffffffff1681526020016008820160009054906101000a900473ffffffffffffffffffffffffffffffffffffffff1673ffffffffffffffffffffffffffffffffffffffff1673ffffffffffffffffffffffffffffffffffffffff16815260200160098201548152602001600a820160009054906101000a900460ff16151515158152505084868151811061262f5761262e6135b3565b5b6020026020010181905250600185612647919061355d565b945050505b8080612657906135e2565b9150506122c8565b508094505050505090565b81600073ffffffffffffffffffffffffffffffffffffffff166006600083815260200190815260200160002060050160009054906101000a900473ffffffffffffffffffffffffffffffffffffffff1673ffffffffffffffffffffffffffffffffffffffff1614801561273e57503373ffffffffffffffffffffffffffffffffffffffff166006600083815260200190815260200160002060040160009054906101000a900473ffffffffffffffffffffffffffffffffffffffff1673ffffffffffffffffffffffffffffffffffffffff16145b61277d576040517f08c379a000000000000000000000000000000000000000000000000000000000815260040161277490613985565b60405180910390fd5b600060066000858152602001908152602001600020905060008160090154905080826006018190555060008260070160006101000a81548160ff02191690831515021790555060008260070160019054906101000a900473ffffffffffffffffffffffffffffffffffffffff169050808360050160006101000a81548173ffffffffffffffffffffffffffffffffffffffff021916908373ffffffffffffffffffffffffffffffffffffffff16021790555060008360080160009054906101000a900473ffffffffffffffffffffffffffffffffffffffff169050808460040160006101000a81548173ffffffffffffffffffffffffffffffffffffffff021916908373ffffffffffffffffffffffffffffffffffffffff16021790555060008890508073ffffffffffffffffffffffffffffffffffffffff1663f5537ede33308a6040518463ffffffff1660e01b81526004016128dd939291906136b7565b600060405180830381600087803b1580156128f757600080fd5b505af115801561290b573d6000803e3d6000fd5b5050505083887f0cda8f7bfedf96da039369f3a99bc7c6fe0187618743d6a93bceb682d3026a2060008686604051612945939291906139a5565b60405180910390a3505050505050505050565b6000600254905090565b600260005414156129a8576040517f08c379a000000000000000000000000000000000000000000000000000000000815260040161299f90613688565b60405180910390fd5b6002600081905550600081116129f3576040517f08c379a00000000000000000000000000000000000000000000000000000000081526004016129ea90613a28565b60405180910390fd5b60008211612a36576040517f08c379a0000000000000000000000000000000000000000000000000000000008152600401612a2d90613a94565b60405180910390fd5b600073ffffffffffffffffffffffffffffffffffffffff168373ffffffffffffffffffffffffffffffffffffffff161415612aa6576040517f08c379a0000000000000000000000000000000000000000000000000000000008152600401612a9d90613b00565b60405180910390fd5b612ab06003612eb9565b6000612abc6003612eab565b90506040518061018001604052808573ffffffffffffffffffffffffffffffffffffffff1681526020018281526020018481526020013373ffffffffffffffffffffffffffffffffffffffff1681526020013373ffffffffffffffffffffffffffffffffffffffff168152602001600073ffffffffffffffffffffffffffffffffffffffff168152602001838152602001600015158152602001600073ffffffffffffffffffffffffffffffffffffffff168152602001600073ffffffffffffffffffffffffffffffffffffffff168152602001838152602001600015158152506006600083815260200190815260200160002060008201518160000160006101000a81548173ffffffffffffffffffffffffffffffffffffffff021916908373ffffffffffffffffffffffffffffffffffffffff160217905550602082015181600101556040820151816002015560608201518160030160006101000a81548173ffffffffffffffffffffffffffffffffffffffff021916908373ffffffffffffffffffffffffffffffffffffffff16021790555060808201518160040160006101000a81548173ffffffffffffffffffffffffffffffffffffffff021916908373ffffffffffffffffffffffffffffffffffffffff16021790555060a08201518160050160006101000a81548173ffffffffffffffffffffffffffffffffffffffff021916908373ffffffffffffffffffffffffffffffffffffffff16021790555060c0820151816006015560e08201518160070160006101000a81548160ff0219169083151502179055506101008201518160070160016101000a81548173ffffffffffffffffffffffffffffffffffffffff021916908373ffffffffffffffffffffffffffffffffffffffff1602179055506101208201518160080160006101000a81548173ffffffffffffffffffffffffffffffffffffffff021916908373ffffffffffffffffffffffffffffffffffffffff160217905550610140820151816009015561016082015181600a0160006101000a81548160ff0219169083151502179055509050508373ffffffffffffffffffffffffffffffffffffffff166323b872dd3330866040518463ffffffff1660e01b8152600401612e06939291906136b7565b600060405180830381600087803b158015612e2057600080fd5b505af1158015612e34573d6000803e3d6000fd5b50505050808473ffffffffffffffffffffffffffffffffffffffff167f856a6e2b4dda93905c73b3fc3a0bd1785db44a41347f117cb23f9e452ba518bb85333360008860008060008c6000604051612e959a99989796959493929190613b20565b60405180910390a3506001600081905550505050565b600081600001549050919050565b6001816000016000828254019250508190555050565b60008160000154905060008111612f1b576040517f08c379a0000000000000000000000000000000000000000000000000000000008152600401612f1290613c08565b60405180910390fd5b6001810382600001819055505050565b604051806101800160405280600073ffffffffffffffffffffffffffffffffffffffff1681526020016000815260200160008152602001600073ffffffffffffffffffffffffffffffffffffffff168152602001600073ffffffffffffffffffffffffffffffffffffffff168152602001600073ffffffffffffffffffffffffffffffffffffffff16815260200160008152602001600015158152602001600073ffffffffffffffffffffffffffffffffffffffff168152602001600073ffffffffffffffffffffffffffffffffffffffff168152602001600081526020016000151581525090565b600081519050919050565b600082825260208201905092915050565b6000819050602082019050919050565b600073ffffffffffffffffffffffffffffffffffffffff82169050919050565b600061306b82613040565b9050919050565b61307b81613060565b82525050565b6000819050919050565b61309481613081565b82525050565b60006130a582613040565b9050919050565b6130b58161309a565b82525050565b60008115159050919050565b6130d0816130bb565b82525050565b610180820160008201516130ed6000850182613072565b506020820151613100602085018261308b565b506040820151613113604085018261308b565b50606082015161312660608501826130ac565b50608082015161313960808501826130ac565b5060a082015161314c60a08501826130ac565b5060c082015161315f60c085018261308b565b5060e082015161317260e08501826130c7565b50610100820151613187610100850182613072565b5061012082015161319c610120850182613072565b506101408201516131b161014085018261308b565b506101608201516131c66101608501826130c7565b50505050565b60006131d883836130d6565b6101808301905092915050565b6000602082019050919050565b60006131fd82613014565b613207818561301f565b935061321283613030565b8060005b8381101561324357815161322a88826131cc565b9750613235836131e5565b925050600181019050613216565b5085935050505092915050565b6000602082019050818103600083015261326a81846131f2565b905092915050565b600080fd5b61328081613060565b811461328b57600080fd5b50565b60008135905061329d81613277565b92915050565b6132ac81613081565b81146132b757600080fd5b50565b6000813590506132c9816132a3565b92915050565b600080604083850312156132e6576132e5613272565b5b60006132f48582860161328e565b9250506020613305858286016132ba565b9150509250929050565b60008060006060848603121561332857613327613272565b5b60006133368682870161328e565b9350506020613347868287016132ba565b9250506040613358868287016132ba565b9150509250925092565b60006020828403121561337857613377613272565b5b6000613386848285016132ba565b91505092915050565b610180820160008201516133a66000850182613072565b5060208201516133b9602085018261308b565b5060408201516133cc604085018261308b565b5060608201516133df60608501826130ac565b5060808201516133f260808501826130ac565b5060a082015161340560a08501826130ac565b5060c082015161341860c085018261308b565b5060e082015161342b60e08501826130c7565b50610100820151613440610100850182613072565b50610120820151613455610120850182613072565b5061014082015161346a61014085018261308b565b5061016082015161347f6101608501826130c7565b50505050565b60006101808201905061349b600083018461338f565b92915050565b6134aa81613081565b82525050565b60006020820190506134c560008301846134a1565b92915050565b7f4e487b7100000000000000000000000000000000000000000000000000000000600052601160045260246000fd5b600061350582613081565b915061351083613081565b925082821015613523576135226134cb565b5b828203905092915050565b7f4e487b7100000000000000000000000000000000000000000000000000000000600052604160045260246000fd5b600061356882613081565b915061357383613081565b9250827fffffffffffffffffffffffffffffffffffffffffffffffffffffffffffffffff038211156135a8576135a76134cb565b5b828201905092915050565b7f4e487b7100000000000000000000000000000000000000000000000000000000600052603260045260246000fd5b60006135ed82613081565b91507fffffffffffffffffffffffffffffffffffffffffffffffffffffffffffffffff8214156136205761361f6134cb565b5b600182019050919050565b600082825260208201905092915050565b7f5265656e7472616e637947756172643a207265656e7472616e742063616c6c00600082015250565b6000613672601f8361362b565b915061367d8261363c565b602082019050919050565b600060208201905081810360008301526136a181613665565b9050919050565b6136b181613060565b82525050565b60006060820190506136cc60008301866136a8565b6136d960208301856136a8565b6136e660408301846134a1565b949350505050565b6000819050919050565b600061371361370e61370984613040565b6136ee565b613040565b9050919050565b6000613725826136f8565b9050919050565b60006137378261371a565b9050919050565b6137478161372c565b82525050565b6000819050919050565b600061377261376d6137688461374d565b6136ee565b613081565b9050919050565b61378281613757565b82525050565b613791816130bb565b82525050565b6000610100820190506137ad600083018b61373e565b6137ba602083018a61373e565b6137c7604083018961373e565b6137d460608301886134a1565b6137e160808301876136a8565b6137ee60a08301866136a8565b6137fb60c0830185613779565b61380860e0830184613788565b9998505050505050505050565b7f4f6e6c792070726f64756374206f776e65722063616e20646f2074686973206f60008201527f7065726174696f6e000000000000000000000000000000000000000000000000602082015250565b600061387160288361362b565b915061387c82613815565b604082019050919050565b600060208201905081810360008301526138a081613864565b9050919050565b7f5072696365206d757374206265206174206c6561737420312077656900000000600082015250565b60006138dd601c8361362b565b91506138e8826138a7565b602082019050919050565b6000602082019050818103600083015261390c816138d0565b9050919050565b7f4f6e6c79207468652070726f647563742063616e20646f2074686973206f706560008201527f726174696f6e0000000000000000000000000000000000000000000000000000602082015250565b600061396f60268361362b565b915061397a82613913565b604082019050919050565b6000602082019050818103600083015261399e81613962565b9050919050565b60006060820190506139ba6000830186613788565b6139c760208301856136a8565b6139d460408301846136a8565b949350505050565b7f50726963652073686f756c64206265206d6f72655468616e2031000000000000600082015250565b6000613a12601a8361362b565b9150613a1d826139dc565b602082019050919050565b60006020820190508181036000830152613a4181613a05565b9050919050565b7f746f6b656e2049642073686f756c64206265206d6f72655468616e2031000000600082015250565b6000613a7e601d8361362b565b9150613a8982613a48565b602082019050919050565b60006020820190508181036000830152613aad81613a71565b9050919050565b7f616464726573732073686f756c64206e6f7420626520657175616c2030783000600082015250565b6000613aea601f8361362b565b9150613af582613ab4565b602082019050919050565b60006020820190508181036000830152613b1981613add565b9050919050565b600061014082019050613b36600083018d6134a1565b613b43602083018c6136a8565b613b50604083018b6136a8565b613b5d606083018a6136a8565b613b6a60808301896134a1565b613b7760a0830188613788565b613b8460c08301876136a8565b613b9160e08301866136a8565b613b9f6101008301856134a1565b613bad610120830184613788565b9b9a5050505050505050505050565b7f436f756e7465723a2064656372656d656e74206f766572666c6f770000000000600082015250565b6000613bf2601b8361362b565b9150613bfd82613bbc565b602082019050919050565b60006020820190508181036000830152613c2181613be5565b905091905056fea2646970667358221220c370b635e8a4eaef8f4090cac5fba9808d3d8f233826b2bcb1be2112fb50d7cd64736f6c634300080b0033",
  "immutableReferences": {},
  "source": "// SPDX-License-Identifier: MIT\npragma solidity >=0.4.22 <0.9.0;\nimport \"@openzeppelin/contracts/utils/Counters.sol\";\nimport \"@openzeppelin/contracts/token/ERC721/ERC721.sol\";\nimport \"@openzeppelin/contracts/security/ReentrancyGuard.sol\";\n\nimport \"./NFT.sol\";\n\ncontract NFTMarketPlace is ReentrancyGuard {\n   \n    address payable owner;\n\n     uint256  marketFees = 0.01 ether ;\n\n      using Counters for Counters.Counter;\n     Counters.Counter private itemId;\n    Counters.Counter private itemsSold;\n/////====>\n    Counters.Counter private _itemsDeleted;\n/////====>\n\n     constructor(){\n         owner = payable(msg.sender);\n     }\n\n    struct NftMarketItem{\n        address nftContract;\n        uint256 id;\n        uint256 tokenId;\n          //=>\n        address payable creator;\n        address  payable seller;\n       address payable owner;\n\n        uint256 price;\n        bool sold;\n        address oldOwner;\n        address oldSeller;\n\n        uint256 oldPrice;\n        bool isResell;\n\n\n    }\n\n        event NftMarketItemCreated(\n        address  indexed nftContract,\n        uint256 indexed id,\n        uint256 tokenId,\n       \n        //=>\n         address  creator,\n\n        address  seller,\n         address  owner,\n        uint256 price,\n        bool sold,\n        address oldOwner,\n         address oldSeller,\n\n        uint256 oldPrice,\n       bool isResell\n        );\n   \n  //=>\n     event ProductUpdated(\n      uint256 indexed id,\n      uint256 indexed newPrice,\n       bool sold,\n        address  owner,\n         address  seller\n    );\n      //=>\n    event MarketItemDeleted(uint256 id);\n//=>\n    event ProductSold(\n        uint256 indexed id,\n        address indexed nftContract,\n        uint256 indexed tokenId,\n        address creator,\n        address seller,\n        address owner,\n        uint256 price,\n        address oldOwner,\n        address oldSeller,\n        uint256 oldPrice,\n        bool isResell\n    );\n    //==>\n       event ProductListed(\n        uint256 indexed itemId\n    );\n    \n    function gettheMarketFees()public view returns(uint256){\n        return marketFees;\n    }\n///////////////////////////////////\n     mapping(uint256=>NftMarketItem) private idForMarketItem;\n///////////////////////////////////\n    ///=>\n        modifier onlyProductOrMarketPlaceOwner(uint256 id) {\n        if (idForMarketItem[id].owner != address(0)) {\n            require(idForMarketItem[id].owner == msg.sender);\n        } else {\n            require(\n                idForMarketItem[id].seller == msg.sender || msg.sender == owner\n            );\n        }\n        _;\n    }\n\n    modifier onlyProductSeller(uint256 id) {\n        require(\n            idForMarketItem[id].owner == address(0) &&\n                idForMarketItem[id].seller == msg.sender, \"Only the product can do this operation\"\n        );\n        _;\n    }\n\n    modifier onlyItemOwner(uint256 id) {\n        require(\n            idForMarketItem[id].owner == msg.sender,\n            \"Only product owner can do this operation\"\n        );\n        _;\n    }\n\n      modifier onlyItemOldOwner(uint256 id) {\n        require(\n            idForMarketItem[id].oldOwner == msg.sender,\n            \"Only product Old owner can do this operation\"\n        );\n        _;\n    }\n\n    function createItemForSale(address nftContract,uint256 tokenId,uint256 price)public payable nonReentrant {\n        require(price >0,\"Price should be moreThan 1\");\n        require(tokenId >0,\"token Id should be moreThan 1\");\n        require(nftContract != address(0),\"address should not be equal 0x0\");\n        itemId.increment();\n        uint256 id = itemId.current();\n\n        idForMarketItem[id]= NftMarketItem(\n            nftContract,\n            id,\n            tokenId,\n            payable(msg.sender),\n            payable(msg.sender),\n            payable (address (0)),\n            price,\n            false,\n            payable(address(0)),\n            payable(address(0)),\n            price,\n            false\n        );\n\n        IERC721(nftContract).transferFrom(msg.sender, address(this), tokenId);\n\n        //Creatore-seller-owner\n\n        emit NftMarketItemCreated(nftContract, id, tokenId,  msg.sender, msg.sender,address(0), price, false,address(0),address(0),price,false);\n\n    }\n\n    //=>Update Item =>We Dont Use This\n\n    function updateMarketItem(address nftContract,uint256 id,uint256 tokenId)\n        public \n        payable\n        onlyProductSeller(id)\n    {\n        NftMarketItem storage item = idForMarketItem[id];\n        uint256 newPrice = item.oldPrice;\n        item.price = newPrice;\n        item.sold = false;\n          address newOwner = item.oldOwner;\n          item.owner = payable(newOwner);\n\n         address newSeller = item.oldSeller;\n          item.seller = payable(newSeller);\n\n         NFT tokenContract = NFT(nftContract);\n\n        tokenContract.transferToken(msg.sender, address(this), tokenId);\n        \n\n    //        uint256 indexed id,\n    //   uint256 indexed newPrice,\n    //    bool sold,\n    //     address owner,\n    //      address seller\n\n        emit ProductUpdated(id, newPrice,false,newOwner,newSeller);\n    }\n\n\n    //Buy Item \n\n\n    function createMarketForSale(address nftContract,uint256 nftItemId) public  payable nonReentrant {\n    uint256 price = idForMarketItem[nftItemId].price;\n     uint256 tokenId = idForMarketItem[nftItemId].tokenId;\n\n\n\n     //require(msg.value == price,\"should buy the price of item\");\n    //idForMarketItem[nftItemId].seller.transfer(msg.value);\n    //  address sellerAddress = idForMarketItem[nftItemId].seller;\n      IERC721(nftContract).transferFrom(address(this), msg.sender, tokenId); //buy\n      idForMarketItem[nftItemId].owner = payable(msg.sender);\n      idForMarketItem[nftItemId].sold =  true;\n       idForMarketItem[nftItemId].isResell =  true;\n\n      itemsSold.increment();\n\n           emit ProductSold(\n            idForMarketItem[nftItemId].id,\n            idForMarketItem[nftItemId].nftContract,\n            idForMarketItem[nftItemId].tokenId,\n            idForMarketItem[nftItemId].creator,\n            idForMarketItem[nftItemId].seller,\n            payable(msg.sender),\n            idForMarketItem[nftItemId].price,\n            address(0),\n            address(0),\n            0,\n            idForMarketItem[nftItemId].isResell \n        );\n\n    }\n\n     function cancelResellWitholdPrice(address nftContract,uint256 nftItemId) public  payable nonReentrant {\n    uint256 price = idForMarketItem[nftItemId].oldPrice;\n     uint256 tokenId = idForMarketItem[nftItemId].tokenId;\n\n\n\n     //require(msg.value == price,\"should buy the price of item\");\n    //idForMarketItem[nftItemId].seller.transfer(msg.value);\n    //  address sellerAddress = idForMarketItem[nftItemId].seller;\n      IERC721(nftContract).transferFrom(address(this), msg.sender, tokenId); //buy\n      idForMarketItem[nftItemId].owner = payable(msg.sender);\n      idForMarketItem[nftItemId].price = price;\n       idForMarketItem[nftItemId].seller = payable(idForMarketItem[nftItemId].oldSeller);\n      idForMarketItem[nftItemId].sold =  true;\n      itemsSold.increment();\n\n           emit ProductSold(\n            idForMarketItem[nftItemId].id,\n            idForMarketItem[nftItemId].nftContract,\n            idForMarketItem[nftItemId].tokenId,\n            idForMarketItem[nftItemId].creator,\n            idForMarketItem[nftItemId].seller,\n            payable(msg.sender),\n            idForMarketItem[nftItemId].price,\n            address(0),\n            address(0),\n            0,\n            idForMarketItem[nftItemId].isResell \n        );\n\n    }\n\n    //REsell\n\n     function putItemToResell(address nftContract, uint256 itemId, uint256 newPrice)\n        public\n        payable\n        nonReentrant\n        onlyItemOwner(itemId)\n    {\n        uint256 tokenId = idForMarketItem[itemId].tokenId;\n        require(newPrice > 0, \"Price must be at least 1 wei\");\n\n        NFT tokenContract = NFT(nftContract);\n\n        tokenContract.transferToken(msg.sender, address(this), tokenId);\n\n        \n        address payable oldOwner = idForMarketItem[itemId].owner;\n          address payable oldSeller = idForMarketItem[itemId].seller;\n\n        uint256 oldPrice = idForMarketItem[itemId].price;\n\n        idForMarketItem[itemId].owner = payable(address(0));\n        idForMarketItem[itemId].seller = oldOwner;\n        idForMarketItem[itemId].price = newPrice;\n        idForMarketItem[itemId].sold = false;\n        //Start to save old value\n        idForMarketItem[itemId].oldOwner = oldOwner;\n        idForMarketItem[itemId].oldSeller = oldSeller;\n         idForMarketItem[itemId].oldPrice = oldPrice;\n        \n        itemsSold.decrement();\n\n        emit ProductListed(itemId);\n    }\n///FETCH SINGLE NFT\n  function fetchSingleItem(uint256 id) public view returns (NftMarketItem memory)\n       \n    {\n        return idForMarketItem[id];\n    }\n    /////////////////////////GETS///////\n\n    //My items => sold,not sold,buy\n\nfunction getMyItemCreated() public view returns(NftMarketItem[] memory){\nuint256 totalItemCount = itemId.current(); \nuint myItemCount=0;//10\nuint myCurrentIndex =0;\n\nfor(uint i = 0;i<totalItemCount;i++){\n    if(idForMarketItem[i+1].creator == msg.sender){\n        myItemCount+=1;\n\n    }\n}\nNftMarketItem [] memory nftItems = new NftMarketItem[](myItemCount); //list[3]\nfor(uint i = 0;i<totalItemCount;i++){\n    if(idForMarketItem[i+1].creator==msg.sender){      //[1,2,3,4,5]\n      uint currentId = i+1;\n        NftMarketItem storage  currentItem = idForMarketItem[currentId];\n        nftItems[myCurrentIndex] = currentItem;\n        myCurrentIndex +=1;\n        \n    }\n}\n\n\nreturn nftItems;\n\n}\n\n\nfunction getMyItemsolod() public view returns(NftMarketItem[] memory){\nuint256 totalItemCount = itemId.current(); \nuint myItemCount=0;//10\nuint myCurrentIndex =0;\n\nfor(uint i = 0;i<totalItemCount;i++){\n    if(idForMarketItem[i+1].seller == msg.sender){\n        myItemCount+=1;\n\n    }\n}\nNftMarketItem [] memory nftItems = new NftMarketItem[](myItemCount); //list[3]\nfor(uint i = 0;i<totalItemCount;i++){\n    if(idForMarketItem[i+1].seller==msg.sender){      //[1,2,3,4,5]\n      uint currentId = i+1;\n        NftMarketItem storage  currentItem = idForMarketItem[currentId];\n        nftItems[myCurrentIndex] = currentItem;\n        myCurrentIndex +=1;\n        \n    }\n}\n\n\nreturn nftItems;\n\n}\n\n\n//Create My purchased Nft Item\n\nfunction getMyNFTPurchased() public view returns(NftMarketItem[] memory){\nuint256 totalItemCount = itemId.current(); \nuint myItemCount=0;//10\nuint myCurrentIndex =0;\n\nfor(uint i = 0;i<totalItemCount;i++){\n    if(idForMarketItem[i + 1 ].owner == msg.sender){\n        myItemCount+=1;\n\n    }\n}\n\nNftMarketItem [] memory nftItems = new NftMarketItem[](myItemCount); //list[3]\nfor(uint i = 0;i<totalItemCount;i++){\n    if(idForMarketItem[i+1].owner== msg.sender){      //[1,2,3,4,5]\n      uint currentId = i+1;\n        NftMarketItem storage  currentItem = idForMarketItem[currentId];\n        nftItems[myCurrentIndex] = currentItem;\n        myCurrentIndex +=1;\n        \n    }\n}\n\n\nreturn nftItems;\n\n}\n//Fetch  all unsold nft items\nfunction getAllUnsoldItems()public view returns (NftMarketItem[] memory){\n\nuint256 totalItemCount = itemId.current(); \nuint myItemCount= itemId.current() - itemsSold.current();\nuint myCurrentIndex =0;\n\n\n\nNftMarketItem [] memory nftItems = new NftMarketItem[](myItemCount); //list[3]\nfor(uint i = 0;i<totalItemCount;i++){\n    if(idForMarketItem[i+1].owner== address(0)){      //[1,2,3,4,5]\n      uint currentId = i+1;\n        NftMarketItem storage  currentItem = idForMarketItem[currentId];\n        nftItems[myCurrentIndex] = currentItem;\n        myCurrentIndex +=1;\n        \n    }\n}\n\n\nreturn nftItems;\n\n\n}\n\n//Get resell my items\n\nfunction getMyResellItems() public view returns(NftMarketItem[] memory){\nuint256 totalItemCount = itemId.current(); \nuint myItemCount=0;//10\nuint myCurrentIndex =0;\n\nfor(uint i = 0;i<totalItemCount;i++){\n    if((idForMarketItem[i + 1 ].seller == msg.sender)&&(idForMarketItem[i + 1 ].sold == false)){\n        myItemCount+=1;\n\n    }\n}\n\nNftMarketItem [] memory nftItems = new NftMarketItem[](myItemCount); //list[3]\nfor(uint i = 0;i<totalItemCount;i++){\n    if((idForMarketItem[i + 1 ].seller == msg.sender)&&(idForMarketItem[i + 1 ].sold == false)){      //[1,2,3,4,5]\n      uint currentId = i+1;\n        NftMarketItem storage  currentItem = idForMarketItem[currentId];\n        nftItems[myCurrentIndex] = currentItem;\n        myCurrentIndex +=1;\n        \n    }\n}\n\n\nreturn nftItems;\n\n}\n}",
  "sourcePath": "/Users/mrbebo/Main Hard/Projects/Freelancer Job/ ISORAW/IsoRaw_semi_NFt_Marketplace/contracts/NFTMarketPlace.sol",
  "compiler": {
    "name": "solc",
    "version": "0.8.11+commit.d7f03943.Emscripten.clang"
  },
  "schemaVersion": "3.4.4",
  "updatedAt": "2022-01-28T18:55:33.862Z",
  "networkType": "ethereum",
  "devdoc": {
    "kind": "dev",
    "methods": {},
    "version": 1
  },
  "userdoc": {
    "kind": "user",
    "methods": {
      "fetchSingleItem(uint256)": {
        "notice": "FETCH SINGLE NFT"
      }
    },
    "version": 1
  }
}